{
  "contractName": "Calc",
  "abi": [
    {
      "constant": false,
      "inputs": [
        {
          "internalType": "uint256",
          "name": "a",
          "type": "uint256"
        },
        {
          "internalType": "uint256",
          "name": "b",
          "type": "uint256"
        }
      ],
      "name": "add",
      "outputs": [
        {
          "internalType": "uint256",
          "name": "",
          "type": "uint256"
        }
      ],
      "payable": false,
      "stateMutability": "nonpayable",
      "type": "function"
    },
    {
      "constant": true,
      "inputs": [],
      "name": "getCount",
      "outputs": [
        {
          "internalType": "uint256",
          "name": "",
          "type": "uint256"
        }
      ],
      "payable": false,
      "stateMutability": "view",
      "type": "function"
    }
  ],
  "bytecode": "0x608060405234801561001057600080fd5b5060f88061001f6000396000f3fe6080604052348015600f57600080fd5b506004361060325760003560e01c8063771602f7146037578063a87d942c146080575b600080fd5b606a60048036036040811015604b57600080fd5b810190808035906020019092919080359060200190929190505050609c565b6040518082815260200191505060405180910390f35b608660ba565b6040518082815260200191505060405180910390f35b60008060008154809291906001019190505550818301905092915050565b6000805490509056fea265627a7a72315820fa108c1eed9bb7b1a31cd5d4504032d4c42ca29a46d2e27b60bde9710bc61b8764736f6c634300050c0032",
  "source": "pragma solidity >=0.4.24 <0.7.0;\n\ncontract Calc{\n    /*区块链存储*/\n    uint count;\n\n    /*执行会写入数据，所以需要`transaction`的方式执行。*/\n    function add(uint a, uint b) public returns(uint){\n        count++;\n        return a + b;\n    }\n\n    /*执行不会写入数据，所以允许`call`的方式执行。*/\n    function getCount() view public returns (uint){\n        return count;\n    }\n}",
  "sourcePath": "/Users/liqinghua/git/soldebug/contracts/checksol.sol",
  "compiler": {
    "name": "solc",
    "version": "0.5.12+commit.7709ece9.Emscripten.clang"
  },
  "schemaVersion": "3.0.20",
  "updatedAt": "2020-01-19T12:19:36.877Z",
  "devdoc": {
    "methods": {}
  },
  "userdoc": {
    "methods": {}
  }
}